{
  "_format": "hh-sol-artifact-1",
  "contractName": "Bank",
  "sourceName": "contracts/Bank.sol",
  "abi": [
    {
      "inputs": [],
      "stateMutability": "nonpayable",
      "type": "constructor"
    },
    {
      "anonymous": false,
      "inputs": [
        {
          "indexed": true,
          "internalType": "address",
          "name": "customer",
          "type": "address"
        },
        {
          "indexed": false,
          "internalType": "uint256",
          "name": "amount",
          "type": "uint256"
        },
        {
          "indexed": false,
          "internalType": "uint256",
          "name": "timestamp",
          "type": "uint256"
        }
      ],
      "name": "Deposit",
      "type": "event"
    },
    {
      "anonymous": false,
      "inputs": [
        {
          "indexed": true,
          "internalType": "address",
          "name": "from",
          "type": "address"
        },
        {
          "indexed": true,
          "internalType": "address",
          "name": "to",
          "type": "address"
        },
        {
          "indexed": false,
          "internalType": "uint256",
          "name": "amount",
          "type": "uint256"
        },
        {
          "indexed": false,
          "internalType": "uint256",
          "name": "timestamp",
          "type": "uint256"
        }
      ],
      "name": "Transfer",
      "type": "event"
    },
    {
      "anonymous": false,
      "inputs": [
        {
          "indexed": true,
          "internalType": "address",
          "name": "customer",
          "type": "address"
        },
        {
          "indexed": false,
          "internalType": "uint256",
          "name": "amount",
          "type": "uint256"
        },
        {
          "indexed": false,
          "internalType": "uint256",
          "name": "timestamp",
          "type": "uint256"
        }
      ],
      "name": "Withdraw",
      "type": "event"
    },
    {
      "inputs": [],
      "name": "bankName",
      "outputs": [
        {
          "internalType": "string",
          "name": "",
          "type": "string"
        }
      ],
      "stateMutability": "view",
      "type": "function"
    },
    {
      "inputs": [],
      "name": "bankOwner",
      "outputs": [
        {
          "internalType": "address",
          "name": "",
          "type": "address"
        }
      ],
      "stateMutability": "view",
      "type": "function"
    },
    {
      "inputs": [
        {
          "internalType": "address",
          "name": "",
          "type": "address"
        }
      ],
      "name": "customerBalance",
      "outputs": [
        {
          "internalType": "uint256",
          "name": "",
          "type": "uint256"
        }
      ],
      "stateMutability": "view",
      "type": "function"
    },
    {
      "inputs": [],
      "name": "depositMoney",
      "outputs": [],
      "stateMutability": "payable",
      "type": "function"
    },
    {
      "inputs": [],
      "name": "getBankBalance",
      "outputs": [
        {
          "internalType": "uint256",
          "name": "",
          "type": "uint256"
        }
      ],
      "stateMutability": "view",
      "type": "function"
    },
    {
      "inputs": [],
      "name": "getCustomerBalance",
      "outputs": [
        {
          "internalType": "uint256",
          "name": "",
          "type": "uint256"
        }
      ],
      "stateMutability": "view",
      "type": "function"
    },
    {
      "inputs": [
        {
          "internalType": "string",
          "name": "_name",
          "type": "string"
        }
      ],
      "name": "setBankName",
      "outputs": [],
      "stateMutability": "nonpayable",
      "type": "function"
    },
    {
      "inputs": [
        {
          "internalType": "address payable",
          "name": "_to",
          "type": "address"
        },
        {
          "internalType": "uint256",
          "name": "_total",
          "type": "uint256"
        }
      ],
      "name": "withdrawMoney",
      "outputs": [],
      "stateMutability": "nonpayable",
      "type": "function"
    }
  ],
  "bytecode": "0x608060405234801561001057600080fd5b50336000806101000a81548173ffffffffffffffffffffffffffffffffffffffff021916908373ffffffffffffffffffffffffffffffffffffffff16021790555061124d806100606000396000f3fe60806040526004361061007b5760003560e01c80637b83b50b1161004e5780637b83b50b1461011b578063a853409a14610146578063e147aaa714610171578063f274c8971461019c5761007b565b806316c05aa21461008057806327d358011461008a57806337ebe47b146100b557806370142690146100f2575b600080fd5b6100886101c5565b005b34801561009657600080fd5b5061009f610317565b6040516100ac9190610858565b60405180910390f35b3480156100c157600080fd5b506100dc60048036038101906100d791906108ec565b6103a5565b6040516100e99190610932565b60405180910390f35b3480156100fe57600080fd5b5061011960048036038101906101149190610a82565b6103bd565b005b34801561012757600080fd5b5061013061045e565b60405161013d9190610932565b60405180910390f35b34801561015257600080fd5b5061015b6104f5565b6040516101689190610932565b60405180910390f35b34801561017d57600080fd5b5061018661053c565b6040516101939190610ada565b60405180910390f35b3480156101a857600080fd5b506101c360048036038101906101be9190610b5f565b610560565b005b60003403610208576040517f08c379a00000000000000000000000000000000000000000000000000000000081526004016101ff90610c11565b60405180910390fd5b34600260003373ffffffffffffffffffffffffffffffffffffffff1673ffffffffffffffffffffffffffffffffffffffff16815260200190815260200160002060008282546102579190610c60565b925050819055503373ffffffffffffffffffffffffffffffffffffffff167f90890809c654f11d6e72a28fa60149770a0d11ec6c92319d6ceb2bb0a4ea1a1534426040516102a6929190610c94565b60405180910390a23073ffffffffffffffffffffffffffffffffffffffff163373ffffffffffffffffffffffffffffffffffffffff167f9ed053bb818ff08b8353cd46f78db1f0799f31c9e4458fdb425c10eccd2efc44344260405161030d929190610c94565b60405180910390a3565b6001805461032490610cec565b80601f016020809104026020016040519081016040528092919081815260200182805461035090610cec565b801561039d5780601f106103725761010080835404028352916020019161039d565b820191906000526020600020905b81548152906001019060200180831161038057829003601f168201915b505050505081565b60026020528060005260406000206000915090505481565b60008054906101000a900473ffffffffffffffffffffffffffffffffffffffff1673ffffffffffffffffffffffffffffffffffffffff163373ffffffffffffffffffffffffffffffffffffffff161461044b576040517f08c379a000000000000000000000000000000000000000000000000000000000815260040161044290610d8f565b60405180910390fd5b806001908161045a9190610f5b565b5050565b60008060009054906101000a900473ffffffffffffffffffffffffffffffffffffffff1673ffffffffffffffffffffffffffffffffffffffff163373ffffffffffffffffffffffffffffffffffffffff16146104ef576040517f08c379a00000000000000000000000000000000000000000000000000000000081526004016104e69061109f565b60405180910390fd5b47905090565b6000600260003373ffffffffffffffffffffffffffffffffffffffff1673ffffffffffffffffffffffffffffffffffffffff16815260200190815260200160002054905090565b60008054906101000a900473ffffffffffffffffffffffffffffffffffffffff1681565b60008054906101000a900473ffffffffffffffffffffffffffffffffffffffff1673ffffffffffffffffffffffffffffffffffffffff163373ffffffffffffffffffffffffffffffffffffffff16146105ee576040517f08c379a00000000000000000000000000000000000000000000000000000000081526004016105e590611131565b60405180910390fd5b600260003373ffffffffffffffffffffffffffffffffffffffff1673ffffffffffffffffffffffffffffffffffffffff16815260200190815260200160002054811115610670576040517f08c379a0000000000000000000000000000000000000000000000000000000008152600401610667906111c3565b60405180910390fd5b80600260003373ffffffffffffffffffffffffffffffffffffffff1673ffffffffffffffffffffffffffffffffffffffff16815260200190815260200160002060008282546106bf91906111e3565b925050819055508173ffffffffffffffffffffffffffffffffffffffff166108fc829081150290604051600060405180830381858888f1935050505015801561070c573d6000803e3d6000fd5b503373ffffffffffffffffffffffffffffffffffffffff167ff279e6a1f5e320cca91135676d9cb6e44ca8a08c0b88342bcdb1144f6511b5688242604051610755929190610c94565b60405180910390a23373ffffffffffffffffffffffffffffffffffffffff163073ffffffffffffffffffffffffffffffffffffffff167f9ed053bb818ff08b8353cd46f78db1f0799f31c9e4458fdb425c10eccd2efc4483426040516107bc929190610c94565b60405180910390a35050565b600081519050919050565b600082825260208201905092915050565b60005b838110156108025780820151818401526020810190506107e7565b60008484015250505050565b6000601f19601f8301169050919050565b600061082a826107c8565b61083481856107d3565b93506108448185602086016107e4565b61084d8161080e565b840191505092915050565b60006020820190508181036000830152610872818461081f565b905092915050565b6000604051905090565b600080fd5b600080fd5b600073ffffffffffffffffffffffffffffffffffffffff82169050919050565b60006108b98261088e565b9050919050565b6108c9816108ae565b81146108d457600080fd5b50565b6000813590506108e6816108c0565b92915050565b60006020828403121561090257610901610884565b5b6000610910848285016108d7565b91505092915050565b6000819050919050565b61092c81610919565b82525050565b60006020820190506109476000830184610923565b92915050565b600080fd5b600080fd5b7f4e487b7100000000000000000000000000000000000000000000000000000000600052604160045260246000fd5b61098f8261080e565b810181811067ffffffffffffffff821117156109ae576109ad610957565b5b80604052505050565b60006109c161087a565b90506109cd8282610986565b919050565b600067ffffffffffffffff8211156109ed576109ec610957565b5b6109f68261080e565b9050602081019050919050565b82818337600083830152505050565b6000610a25610a20846109d2565b6109b7565b905082815260208101848484011115610a4157610a40610952565b5b610a4c848285610a03565b509392505050565b600082601f830112610a6957610a6861094d565b5b8135610a79848260208601610a12565b91505092915050565b600060208284031215610a9857610a97610884565b5b600082013567ffffffffffffffff811115610ab657610ab5610889565b5b610ac284828501610a54565b91505092915050565b610ad4816108ae565b82525050565b6000602082019050610aef6000830184610acb565b92915050565b6000610b008261088e565b9050919050565b610b1081610af5565b8114610b1b57600080fd5b50565b600081359050610b2d81610b07565b92915050565b610b3c81610919565b8114610b4757600080fd5b50565b600081359050610b5981610b33565b92915050565b60008060408385031215610b7657610b75610884565b5b6000610b8485828601610b1e565b9250506020610b9585828601610b4a565b9150509250929050565b7f596f75206e65656420746f206465706f73697420736f6d6520616d6f756e742060008201527f6f66206d6f6e6579210000000000000000000000000000000000000000000000602082015250565b6000610bfb6029836107d3565b9150610c0682610b9f565b604082019050919050565b60006020820190508181036000830152610c2a81610bee565b9050919050565b7f4e487b7100000000000000000000000000000000000000000000000000000000600052601160045260246000fd5b6000610c6b82610919565b9150610c7683610919565b9250828201905080821115610c8e57610c8d610c31565b5b92915050565b6000604082019050610ca96000830185610923565b610cb66020830184610923565b9392505050565b7f4e487b7100000000000000000000000000000000000000000000000000000000600052602260045260246000fd5b60006002820490506001821680610d0457607f821691505b602082108103610d1757610d16610cbd565b5b50919050565b7f596f75206d75737420626520746865206f776e657220746f207365742074686560008201527f206e616d65206f66207468652062616e6b000000000000000000000000000000602082015250565b6000610d796031836107d3565b9150610d8482610d1d565b604082019050919050565b60006020820190508181036000830152610da881610d6c565b9050919050565b60008190508160005260206000209050919050565b60006020601f8301049050919050565b600082821b905092915050565b600060088302610e117fffffffffffffffffffffffffffffffffffffffffffffffffffffffffffffffff82610dd4565b610e1b8683610dd4565b95508019841693508086168417925050509392505050565b6000819050919050565b6000610e58610e53610e4e84610919565b610e33565b610919565b9050919050565b6000819050919050565b610e7283610e3d565b610e86610e7e82610e5f565b848454610de1565b825550505050565b600090565b610e9b610e8e565b610ea6818484610e69565b505050565b5b81811015610eca57610ebf600082610e93565b600181019050610eac565b5050565b601f821115610f0f57610ee081610daf565b610ee984610dc4565b81016020851015610ef8578190505b610f0c610f0485610dc4565b830182610eab565b50505b505050565b600082821c905092915050565b6000610f3260001984600802610f14565b1980831691505092915050565b6000610f4b8383610f21565b9150826002028217905092915050565b610f64826107c8565b67ffffffffffffffff811115610f7d57610f7c610957565b5b610f878254610cec565b610f92828285610ece565b600060209050601f831160018114610fc55760008415610fb3578287015190505b610fbd8582610f3f565b865550611025565b601f198416610fd386610daf565b60005b82811015610ffb57848901518255600182019150602085019450602081019050610fd6565b868310156110185784890151611014601f891682610f21565b8355505b6001600288020188555050505b505050505050565b7f596f75206d75737420626520746865206f776e6572206f66207468652062616e60008201527f6b20746f2073656520616c6c2062616c616e6365732e00000000000000000000602082015250565b60006110896036836107d3565b91506110948261102d565b604082019050919050565b600060208201905081810360008301526110b88161107c565b9050919050565b7f596f75206d75737420626520746865206f776e657220746f206d616b6520776960008201527f746864726177616c730000000000000000000000000000000000000000000000602082015250565b600061111b6029836107d3565b9150611126826110bf565b604082019050919050565b6000602082019050818103600083015261114a8161110e565b9050919050565b7f596f75206861766520696e7375666669656e742066756e647320746f2077697460008201527f6864726177000000000000000000000000000000000000000000000000000000602082015250565b60006111ad6025836107d3565b91506111b882611151565b604082019050919050565b600060208201905081810360008301526111dc816111a0565b9050919050565b60006111ee82610919565b91506111f983610919565b925082820390508181111561121157611210610c31565b5b9291505056fea26469706673582212202903873e06dac02f3f5431420100ca476de4c4c63aede94143725a0931c55ebb64736f6c63430008180033",
  "linkReferences": {},
  "deployedLinkReferences": {}
}